{
  "_format": "hh-sol-artifact-1",
  "contractName": "AdvancedONT",
  "sourceName": "contracts/AdvancedONT.sol",
  "abi": [
    {
      "inputs": [
        {
          "internalType": "string",
          "name": "name_",
          "type": "string"
        },
        {
          "internalType": "string",
          "name": "symbol_",
          "type": "string"
        },
        {
          "internalType": "address",
          "name": "_lzEndpoint",
          "type": "address"
        },
        {
          "internalType": "string",
          "name": "baseURI_",
          "type": "string"
        }
      ],
      "stateMutability": "nonpayable",
      "type": "constructor"
    },
    {
      "anonymous": false,
      "inputs": [
        {
          "indexed": true,
          "internalType": "address",
          "name": "owner",
          "type": "address"
        },
        {
          "indexed": true,
          "internalType": "address",
          "name": "approved",
          "type": "address"
        },
        {
          "indexed": true,
          "internalType": "uint256",
          "name": "tokenId",
          "type": "uint256"
        }
      ],
      "name": "Approval",
      "type": "event"
    },
    {
      "anonymous": false,
      "inputs": [
        {
          "indexed": true,
          "internalType": "address",
          "name": "owner",
          "type": "address"
        },
        {
          "indexed": true,
          "internalType": "address",
          "name": "operator",
          "type": "address"
        },
        {
          "indexed": false,
          "internalType": "bool",
          "name": "approved",
          "type": "bool"
        }
      ],
      "name": "ApprovalForAll",
      "type": "event"
    },
    {
      "anonymous": false,
      "inputs": [
        {
          "indexed": false,
          "internalType": "uint16",
          "name": "_srcChainId",
          "type": "uint16"
        },
        {
          "indexed": false,
          "internalType": "bytes",
          "name": "_srcAddress",
          "type": "bytes"
        },
        {
          "indexed": false,
          "internalType": "uint64",
          "name": "_nonce",
          "type": "uint64"
        },
        {
          "indexed": false,
          "internalType": "bytes",
          "name": "_payload",
          "type": "bytes"
        }
      ],
      "name": "MessageFailed",
      "type": "event"
    },
    {
      "anonymous": false,
      "inputs": [
        {
          "indexed": true,
          "internalType": "address",
          "name": "previousOwner",
          "type": "address"
        },
        {
          "indexed": true,
          "internalType": "address",
          "name": "newOwner",
          "type": "address"
        }
      ],
      "name": "OwnershipTransferred",
      "type": "event"
    },
    {
      "anonymous": false,
      "inputs": [
        {
          "indexed": true,
          "internalType": "bytes32",
          "name": "role",
          "type": "bytes32"
        },
        {
          "indexed": true,
          "internalType": "bytes32",
          "name": "previousAdminRole",
          "type": "bytes32"
        },
        {
          "indexed": true,
          "internalType": "bytes32",
          "name": "newAdminRole",
          "type": "bytes32"
        }
      ],
      "name": "RoleAdminChanged",
      "type": "event"
    },
    {
      "anonymous": false,
      "inputs": [
        {
          "indexed": true,
          "internalType": "bytes32",
          "name": "role",
          "type": "bytes32"
        },
        {
          "indexed": true,
          "internalType": "address",
          "name": "account",
          "type": "address"
        },
        {
          "indexed": true,
          "internalType": "address",
          "name": "sender",
          "type": "address"
        }
      ],
      "name": "RoleGranted",
      "type": "event"
    },
    {
      "anonymous": false,
      "inputs": [
        {
          "indexed": true,
          "internalType": "bytes32",
          "name": "role",
          "type": "bytes32"
        },
        {
          "indexed": true,
          "internalType": "address",
          "name": "account",
          "type": "address"
        },
        {
          "indexed": true,
          "internalType": "address",
          "name": "sender",
          "type": "address"
        }
      ],
      "name": "RoleRevoked",
      "type": "event"
    },
    {
      "anonymous": false,
      "inputs": [
        {
          "indexed": false,
          "internalType": "uint16",
          "name": "_srcChainId",
          "type": "uint16"
        },
        {
          "indexed": false,
          "internalType": "bytes",
          "name": "_srcAddress",
          "type": "bytes"
        }
      ],
      "name": "SetTrustedRemote",
      "type": "event"
    },
    {
      "anonymous": false,
      "inputs": [
        {
          "indexed": true,
          "internalType": "address",
          "name": "from",
          "type": "address"
        },
        {
          "indexed": true,
          "internalType": "address",
          "name": "to",
          "type": "address"
        },
        {
          "indexed": true,
          "internalType": "uint256",
          "name": "tokenId",
          "type": "uint256"
        }
      ],
      "name": "Transfer",
      "type": "event"
    },
    {
      "inputs": [],
      "name": "DEFAULT_ADMIN_ROLE",
      "outputs": [
        {
          "internalType": "bytes32",
          "name": "",
          "type": "bytes32"
        }
      ],
      "stateMutability": "view",
      "type": "function"
    },
    {
      "inputs": [],
      "name": "MAX_MINT",
      "outputs": [
        {
          "internalType": "uint256",
          "name": "",
          "type": "uint256"
        }
      ],
      "stateMutability": "view",
      "type": "function"
    },
    {
      "inputs": [],
      "name": "MAX_TOKENS_PER_MINT",
      "outputs": [
        {
          "internalType": "uint256",
          "name": "",
          "type": "uint256"
        }
      ],
      "stateMutability": "view",
      "type": "function"
    },
    {
      "inputs": [],
      "name": "MINTER_ROLE",
      "outputs": [
        {
          "internalType": "bytes32",
          "name": "",
          "type": "bytes32"
        }
      ],
      "stateMutability": "view",
      "type": "function"
    },
    {
      "inputs": [
        {
          "internalType": "address",
          "name": "",
          "type": "address"
        }
      ],
      "name": "_allowList",
      "outputs": [
        {
          "internalType": "uint256",
          "name": "",
          "type": "uint256"
        }
      ],
      "stateMutability": "view",
      "type": "function"
    },
    {
      "inputs": [],
      "name": "_publicSaleStarted",
      "outputs": [
        {
          "internalType": "bool",
          "name": "",
          "type": "bool"
        }
      ],
      "stateMutability": "view",
      "type": "function"
    },
    {
      "inputs": [],
      "name": "_saleStarted",
      "outputs": [
        {
          "internalType": "bool",
          "name": "",
          "type": "bool"
        }
      ],
      "stateMutability": "view",
      "type": "function"
    },
    {
      "inputs": [
        {
          "internalType": "address",
          "name": "to",
          "type": "address"
        },
        {
          "internalType": "uint256",
          "name": "tokenId",
          "type": "uint256"
        }
      ],
      "name": "approve",
      "outputs": [],
      "stateMutability": "nonpayable",
      "type": "function"
    },
    {
      "inputs": [
        {
          "internalType": "address",
          "name": "owner",
          "type": "address"
        }
      ],
      "name": "balanceOf",
      "outputs": [
        {
          "internalType": "uint256",
          "name": "",
          "type": "uint256"
        }
      ],
      "stateMutability": "view",
      "type": "function"
    },
    {
      "inputs": [],
      "name": "contractURI",
      "outputs": [
        {
          "internalType": "string",
          "name": "",
          "type": "string"
        }
      ],
      "stateMutability": "view",
      "type": "function"
    },
    {
      "inputs": [
        {
          "internalType": "uint16",
          "name": "_chainId",
          "type": "uint16"
        },
        {
          "internalType": "uint256",
          "name": "_id",
          "type": "uint256"
        }
      ],
      "name": "estimateFeesSendNFT",
      "outputs": [
        {
          "internalType": "uint256",
          "name": "fees",
          "type": "uint256"
        }
      ],
      "stateMutability": "view",
      "type": "function"
    },
    {
      "inputs": [
        {
          "internalType": "uint16",
          "name": "",
          "type": "uint16"
        },
        {
          "internalType": "bytes",
          "name": "",
          "type": "bytes"
        },
        {
          "internalType": "uint256",
          "name": "",
          "type": "uint256"
        }
      ],
      "name": "failedMessages",
      "outputs": [
        {
          "internalType": "bytes32",
          "name": "",
          "type": "bytes32"
        }
      ],
      "stateMutability": "view",
      "type": "function"
    },
    {
      "inputs": [],
      "name": "flipPublicSaleStarted",
      "outputs": [],
      "stateMutability": "nonpayable",
      "type": "function"
    },
    {
      "inputs": [],
      "name": "flipRevealed",
      "outputs": [],
      "stateMutability": "nonpayable",
      "type": "function"
    },
    {
      "inputs": [],
      "name": "flipSaleStarted",
      "outputs": [],
      "stateMutability": "nonpayable",
      "type": "function"
    },
    {
      "inputs": [
        {
          "internalType": "uint16",
          "name": "_srcChainId",
          "type": "uint16"
        },
        {
          "internalType": "bytes",
          "name": "_srcAddress",
          "type": "bytes"
        }
      ],
      "name": "forceResumeReceive",
      "outputs": [],
      "stateMutability": "nonpayable",
      "type": "function"
    },
    {
      "inputs": [
        {
          "internalType": "uint256",
          "name": "tokenId",
          "type": "uint256"
        }
      ],
      "name": "getApproved",
      "outputs": [
        {
          "internalType": "address",
          "name": "",
          "type": "address"
        }
      ],
      "stateMutability": "view",
      "type": "function"
    },
    {
      "inputs": [
        {
          "internalType": "uint16",
          "name": "",
          "type": "uint16"
        },
        {
          "internalType": "uint16",
          "name": "_chainId",
          "type": "uint16"
        },
        {
          "internalType": "address",
          "name": "",
          "type": "address"
        },
        {
          "internalType": "uint256",
          "name": "_configType",
          "type": "uint256"
        }
      ],
      "name": "getConfig",
      "outputs": [
        {
          "internalType": "bytes",
          "name": "",
          "type": "bytes"
        }
      ],
      "stateMutability": "view",
      "type": "function"
    },
    {
      "inputs": [],
      "name": "getLzEndpoint",
      "outputs": [
        {
          "internalType": "address",
          "name": "",
          "type": "address"
        }
      ],
      "stateMutability": "view",
      "type": "function"
    },
    {
      "inputs": [
        {
          "internalType": "bytes32",
          "name": "role",
          "type": "bytes32"
        }
      ],
      "name": "getRoleAdmin",
      "outputs": [
        {
          "internalType": "bytes32",
          "name": "",
          "type": "bytes32"
        }
      ],
      "stateMutability": "view",
      "type": "function"
    },
    {
      "inputs": [
        {
          "internalType": "uint16",
          "name": "_chainId",
          "type": "uint16"
        }
      ],
      "name": "getTrustedRemote",
      "outputs": [
        {
          "internalType": "bytes",
          "name": "",
          "type": "bytes"
        }
      ],
      "stateMutability": "view",
      "type": "function"
    },
    {
      "inputs": [
        {
          "internalType": "bytes32",
          "name": "role",
          "type": "bytes32"
        },
        {
          "internalType": "address",
          "name": "account",
          "type": "address"
        }
      ],
      "name": "grantRole",
      "outputs": [],
      "stateMutability": "nonpayable",
      "type": "function"
    },
    {
      "inputs": [
        {
          "internalType": "bytes32",
          "name": "role",
          "type": "bytes32"
        },
        {
          "internalType": "address",
          "name": "account",
          "type": "address"
        }
      ],
      "name": "hasRole",
      "outputs": [
        {
          "internalType": "bool",
          "name": "",
          "type": "bool"
        }
      ],
      "stateMutability": "view",
      "type": "function"
    },
    {
      "inputs": [
        {
          "internalType": "address",
          "name": "owner",
          "type": "address"
        },
        {
          "internalType": "address",
          "name": "operator",
          "type": "address"
        }
      ],
      "name": "isApprovedForAll",
      "outputs": [
        {
          "internalType": "bool",
          "name": "",
          "type": "bool"
        }
      ],
      "stateMutability": "view",
      "type": "function"
    },
    {
      "inputs": [
        {
          "internalType": "uint16",
          "name": "_srcChainId",
          "type": "uint16"
        },
        {
          "internalType": "bytes",
          "name": "_srcAddress",
          "type": "bytes"
        }
      ],
      "name": "isTrustedRemote",
      "outputs": [
        {
          "internalType": "bool",
          "name": "",
          "type": "bool"
        }
      ],
      "stateMutability": "view",
      "type": "function"
    },
    {
      "inputs": [
        {
          "internalType": "uint16",
          "name": "_srcChainId",
          "type": "uint16"
        },
        {
          "internalType": "bytes",
          "name": "_srcAddress",
          "type": "bytes"
        },
        {
          "internalType": "uint64",
          "name": "_nonce",
          "type": "uint64"
        },
        {
          "internalType": "bytes",
          "name": "_payload",
          "type": "bytes"
        }
      ],
      "name": "lzReceive",
      "outputs": [],
      "stateMutability": "nonpayable",
      "type": "function"
    },
    {
      "inputs": [
        {
          "internalType": "uint256",
          "name": "_nbTokens",
          "type": "uint256"
        }
      ],
      "name": "mint",
      "outputs": [],
      "stateMutability": "payable",
      "type": "function"
    },
    {
      "inputs": [],
      "name": "name",
      "outputs": [
        {
          "internalType": "string",
          "name": "",
          "type": "string"
        }
      ],
      "stateMutability": "view",
      "type": "function"
    },
    {
      "inputs": [],
      "name": "nextTokenId",
      "outputs": [
        {
          "internalType": "uint256",
          "name": "",
          "type": "uint256"
        }
      ],
      "stateMutability": "view",
      "type": "function"
    },
    {
      "inputs": [
        {
          "internalType": "uint16",
          "name": "_srcChainId",
          "type": "uint16"
        },
        {
          "internalType": "bytes",
          "name": "_srcAddress",
          "type": "bytes"
        },
        {
          "internalType": "uint64",
          "name": "_nonce",
          "type": "uint64"
        },
        {
          "internalType": "bytes",
          "name": "_payload",
          "type": "bytes"
        }
      ],
      "name": "nonblockingLzReceive",
      "outputs": [],
      "stateMutability": "nonpayable",
      "type": "function"
    },
    {
      "inputs": [],
      "name": "owner",
      "outputs": [
        {
          "internalType": "address",
          "name": "",
          "type": "address"
        }
      ],
      "stateMutability": "view",
      "type": "function"
    },
    {
      "inputs": [
        {
          "internalType": "uint256",
          "name": "tokenId",
          "type": "uint256"
        }
      ],
      "name": "ownerOf",
      "outputs": [
        {
          "internalType": "address",
          "name": "",
          "type": "address"
        }
      ],
      "stateMutability": "view",
      "type": "function"
    },
    {
      "inputs": [
        {
          "internalType": "uint256",
          "name": "_nbTokens",
          "type": "uint256"
        }
      ],
      "name": "publicMint",
      "outputs": [],
      "stateMutability": "payable",
      "type": "function"
    },
    {
      "inputs": [],
      "name": "renounceOwnership",
      "outputs": [],
      "stateMutability": "nonpayable",
      "type": "function"
    },
    {
      "inputs": [
        {
          "internalType": "bytes32",
          "name": "role",
          "type": "bytes32"
        },
        {
          "internalType": "address",
          "name": "account",
          "type": "address"
        }
      ],
      "name": "renounceRole",
      "outputs": [],
      "stateMutability": "nonpayable",
      "type": "function"
    },
    {
      "inputs": [
        {
          "internalType": "uint16",
          "name": "_srcChainId",
          "type": "uint16"
        },
        {
          "internalType": "bytes",
          "name": "_srcAddress",
          "type": "bytes"
        },
        {
          "internalType": "uint64",
          "name": "_nonce",
          "type": "uint64"
        },
        {
          "internalType": "bytes",
          "name": "_payload",
          "type": "bytes"
        }
      ],
      "name": "retryMessage",
      "outputs": [],
      "stateMutability": "payable",
      "type": "function"
    },
    {
      "inputs": [
        {
          "internalType": "bytes32",
          "name": "role",
          "type": "bytes32"
        },
        {
          "internalType": "address",
          "name": "account",
          "type": "address"
        }
      ],
      "name": "revokeRole",
      "outputs": [],
      "stateMutability": "nonpayable",
      "type": "function"
    },
    {
      "inputs": [
        {
          "internalType": "uint256",
          "name": "",
          "type": "uint256"
        },
        {
          "internalType": "uint256",
          "name": "salePrice",
          "type": "uint256"
        }
      ],
      "name": "royaltyInfo",
      "outputs": [
        {
          "internalType": "address",
          "name": "receiver",
          "type": "address"
        },
        {
          "internalType": "uint256",
          "name": "royaltyAmount",
          "type": "uint256"
        }
      ],
      "stateMutability": "view",
      "type": "function"
    },
    {
      "inputs": [
        {
          "internalType": "address",
          "name": "from",
          "type": "address"
        },
        {
          "internalType": "address",
          "name": "to",
          "type": "address"
        },
        {
          "internalType": "uint256",
          "name": "tokenId",
          "type": "uint256"
        }
      ],
      "name": "safeTransferFrom",
      "outputs": [],
      "stateMutability": "nonpayable",
      "type": "function"
    },
    {
      "inputs": [
        {
          "internalType": "address",
          "name": "from",
          "type": "address"
        },
        {
          "internalType": "address",
          "name": "to",
          "type": "address"
        },
        {
          "internalType": "uint256",
          "name": "tokenId",
          "type": "uint256"
        },
        {
          "internalType": "bytes",
          "name": "_data",
          "type": "bytes"
        }
      ],
      "name": "safeTransferFrom",
      "outputs": [],
      "stateMutability": "nonpayable",
      "type": "function"
    },
    {
      "inputs": [
        {
          "internalType": "uint16",
          "name": "_chainId",
          "type": "uint16"
        },
        {
          "internalType": "uint256",
          "name": "_id",
          "type": "uint256"
        }
      ],
      "name": "sendNFT",
      "outputs": [],
      "stateMutability": "payable",
      "type": "function"
    },
    {
      "inputs": [
        {
          "internalType": "address[]",
          "name": "addresses",
          "type": "address[]"
        }
      ],
      "name": "setAllowList",
      "outputs": [],
      "stateMutability": "nonpayable",
      "type": "function"
    },
    {
      "inputs": [
        {
          "internalType": "address",
          "name": "operator",
          "type": "address"
        },
        {
          "internalType": "bool",
          "name": "approved",
          "type": "bool"
        }
      ],
      "name": "setApprovalForAll",
      "outputs": [],
      "stateMutability": "nonpayable",
      "type": "function"
    },
    {
      "inputs": [
        {
          "internalType": "string",
          "name": "uri",
          "type": "string"
        }
      ],
      "name": "setBaseURI",
      "outputs": [],
      "stateMutability": "nonpayable",
      "type": "function"
    },
    {
      "inputs": [
        {
          "internalType": "address payable",
          "name": "_beneficiary",
          "type": "address"
        }
      ],
      "name": "setBeneficiary",
      "outputs": [],
      "stateMutability": "nonpayable",
      "type": "function"
    },
    {
      "inputs": [
        {
          "internalType": "uint16",
          "name": "_version",
          "type": "uint16"
        },
        {
          "internalType": "uint16",
          "name": "_chainId",
          "type": "uint16"
        },
        {
          "internalType": "uint256",
          "name": "_configType",
          "type": "uint256"
        },
        {
          "internalType": "bytes",
          "name": "_config",
          "type": "bytes"
        }
      ],
      "name": "setConfig",
      "outputs": [],
      "stateMutability": "nonpayable",
      "type": "function"
    },
    {
      "inputs": [
        {
          "internalType": "uint256",
          "name": "newGas",
          "type": "uint256"
        }
      ],
      "name": "setGasForDestinationLzReceive",
      "outputs": [],
      "stateMutability": "nonpayable",
      "type": "function"
    },
    {
      "inputs": [
        {
          "internalType": "string",
          "name": "_hiddenMetadataUri",
          "type": "string"
        }
      ],
      "name": "setHiddenMetadataUri",
      "outputs": [],
      "stateMutability": "nonpayable",
      "type": "function"
    },
    {
      "inputs": [
        {
          "internalType": "uint256",
          "name": "newPrice",
          "type": "uint256"
        }
      ],
      "name": "setPrice",
      "outputs": [],
      "stateMutability": "nonpayable",
      "type": "function"
    },
    {
      "inputs": [
        {
          "internalType": "uint16",
          "name": "_version",
          "type": "uint16"
        }
      ],
      "name": "setReceiveVersion",
      "outputs": [],
      "stateMutability": "nonpayable",
      "type": "function"
    },
    {
      "inputs": [
        {
          "internalType": "uint256",
          "name": "_royaltyBasisPoints",
          "type": "uint256"
        }
      ],
      "name": "setRoyaltyFee",
      "outputs": [],
      "stateMutability": "nonpayable",
      "type": "function"
    },
    {
      "inputs": [
        {
          "internalType": "address",
          "name": "_receiver",
          "type": "address"
        }
      ],
      "name": "setRoyaltyReceiver",
      "outputs": [],
      "stateMutability": "nonpayable",
      "type": "function"
    },
    {
      "inputs": [
        {
          "internalType": "uint16",
          "name": "_version",
          "type": "uint16"
        }
      ],
      "name": "setSendVersion",
      "outputs": [],
      "stateMutability": "nonpayable",
      "type": "function"
    },
    {
      "inputs": [
        {
          "internalType": "uint16",
          "name": "_srcChainId",
          "type": "uint16"
        },
        {
          "internalType": "bytes",
          "name": "_srcAddress",
          "type": "bytes"
        }
      ],
      "name": "setTrustedRemote",
      "outputs": [],
      "stateMutability": "nonpayable",
      "type": "function"
    },
    {
      "inputs": [
        {
          "internalType": "bytes4",
          "name": "interfaceId",
          "type": "bytes4"
        }
      ],
      "name": "supportsInterface",
      "outputs": [
        {
          "internalType": "bool",
          "name": "",
          "type": "bool"
        }
      ],
      "stateMutability": "view",
      "type": "function"
    },
    {
      "inputs": [],
      "name": "symbol",
      "outputs": [
        {
          "internalType": "string",
          "name": "",
          "type": "string"
        }
      ],
      "stateMutability": "view",
      "type": "function"
    },
    {
      "inputs": [
        {
          "internalType": "uint256",
          "name": "index",
          "type": "uint256"
        }
      ],
      "name": "tokenByIndex",
      "outputs": [
        {
          "internalType": "uint256",
          "name": "",
          "type": "uint256"
        }
      ],
      "stateMutability": "view",
      "type": "function"
    },
    {
      "inputs": [
        {
          "internalType": "address",
          "name": "owner",
          "type": "address"
        },
        {
          "internalType": "uint256",
          "name": "index",
          "type": "uint256"
        }
      ],
      "name": "tokenOfOwnerByIndex",
      "outputs": [
        {
          "internalType": "uint256",
          "name": "",
          "type": "uint256"
        }
      ],
      "stateMutability": "view",
      "type": "function"
    },
    {
      "inputs": [
        {
          "internalType": "uint256",
          "name": "tokenId",
          "type": "uint256"
        }
      ],
      "name": "tokenURI",
      "outputs": [
        {
          "internalType": "string",
          "name": "",
          "type": "string"
        }
      ],
      "stateMutability": "view",
      "type": "function"
    },
    {
      "inputs": [],
      "name": "totalSupply",
      "outputs": [
        {
          "internalType": "uint256",
          "name": "",
          "type": "uint256"
        }
      ],
      "stateMutability": "view",
      "type": "function"
    },
    {
      "inputs": [
        {
          "internalType": "address",
          "name": "from",
          "type": "address"
        },
        {
          "internalType": "address",
          "name": "to",
          "type": "address"
        },
        {
          "internalType": "uint256",
          "name": "tokenId",
          "type": "uint256"
        }
      ],
      "name": "transferFrom",
      "outputs": [],
      "stateMutability": "nonpayable",
      "type": "function"
    },
    {
      "inputs": [
        {
          "internalType": "address",
          "name": "newOwner",
          "type": "address"
        }
      ],
      "name": "transferOwnership",
      "outputs": [],
      "stateMutability": "nonpayable",
      "type": "function"
    },
    {
      "inputs": [],
      "name": "withdraw",
      "outputs": [],
      "stateMutability": "nonpayable",
      "type": "function"
    }
  ],
  "bytecode": "0x6000600e819055600f556101f46012556205573060135560e0604052600560a081905264173539b7b760d91b60c09081526200003f916015919062000267565b503480156200004d57600080fd5b5060405162004cb438038062004cb48339810160408190526200007091620003c0565b8180858581600090805190602001906200008c92919062000267565b508051620000a290600190602084019062000267565b505050620000bf620000b96200015d60201b60201c565b62000161565b60601b6001600160601b03191660805250620000dd600030620001b3565b620000ea600033620001b3565b60108054336001600160a01b0319918216811790925560118054909116909117905580516200012190601490602084019062000267565b5060405180608001604052806050815260200162004c64605091398051620001529160169160209091019062000267565b5050505050620004c1565b3390565b600b80546001600160a01b038381166001600160a01b0319831681179093556040519116919082907f8be0079c531659141344cd1fd0a4f28419497f9722a3daafe3b4186f6b6457e090600090a35050565b620001bf8282620001c3565b5050565b6000828152600a602090815260408083206001600160a01b038516845290915290205460ff16620001bf576000828152600a602090815260408083206001600160a01b03851684529091529020805460ff19166001179055620002233390565b6001600160a01b0316816001600160a01b0316837f2f8788117e7eff1d82e926ec794901d17c78024a50270940304540a733656f0d60405160405180910390a45050565b82805462000275906200046e565b90600052602060002090601f016020900481019282620002995760008555620002e4565b82601f10620002b457805160ff1916838001178555620002e4565b82800160010185558215620002e4579182015b82811115620002e4578251825591602001919060010190620002c7565b50620002f2929150620002f6565b5090565b5b80821115620002f25760008155600101620002f7565b600082601f8301126200031e578081fd5b81516001600160401b03808211156200033b576200033b620004ab565b604051601f8301601f19908116603f01168101908282118183101715620003665762000366620004ab565b8160405283815260209250868385880101111562000382578485fd5b8491505b83821015620003a5578582018301518183018401529082019062000386565b83821115620003b657848385830101525b9695505050505050565b60008060008060808587031215620003d6578384fd5b84516001600160401b0380821115620003ed578586fd5b620003fb888389016200030d565b9550602087015191508082111562000411578485fd5b6200041f888389016200030d565b604088015190955091506001600160a01b03821682146200043e578384fd5b60608701519193508082111562000453578283fd5b5062000462878288016200030d565b91505092959194509250565b600181811c908216806200048357607f821691505b60208210811415620004a557634e487b7160e01b600052602260045260246000fd5b50919050565b634e487b7160e01b600052604160045260246000fd5b60805160601c6147456200051f60003960008181610adb01528181610bd501528181610dc10152818161101701528181611625015281816118480152818161196b015281816120ba015281816122d2015261263f01526147456000f3fe6080604052600436106103b75760003560e01c80636447c35d116101f2578063a1582f611161010d578063d547741f116100a0578063eb8d72b71161006f578063eb8d72b714610b5d578063f0292a0314610b7d578063f2fde38b14610b92578063f5ecbdbc14610bb257600080fd5b8063d547741f14610aac578063dacbcbe214610acc578063e8a3d48514610aff578063e985e9c514610b1457600080fd5b8063c87b56dd116100dc578063c87b56dd14610a25578063cbed8b9c14610a45578063d1deba1f14610a65578063d539139314610a7857600080fd5b8063a1582f61146109b0578063a217fddf146109d0578063a22cb465146109e5578063b88d4fde14610a0557600080fd5b80638da5cb5b1161018557806391d148541161015457806391d1485414610948578063943fb8721461096857806395d89b4114610988578063a0712d681461099d57600080fd5b80638da5cb5b1461089b5780638dc251e3146108b95780638ee74912146108d957806391b7f5ed1461092857600080fd5b8063715018a6116101c1578063715018a61461083c57806375794a3c1461085157806387c348bf14610867578063899d7b381461088657600080fd5b80636447c35d146107bc57806366ad5c8a146107dc57806369b41f95146107fc57806370a082311461081c57600080fd5b80632f745c59116102e257806342d65a8d1161027557806355f804b31161024457806355f804b3146107355780635ccba05214610755578063600e97f6146107825780636352211e1461079c57600080fd5b806342d65a8d146106c25780634f6ccce7146106e25780634f8a6554146107025780634fdd43cb1461071557600080fd5b80633ccfd60b116102b15780633ccfd60b1461064d5780633d8b38f6146106625780633e4086e51461068257806342842e0e146106a257600080fd5b80632f745c59146105e35780633377cd661461060357806336568abe146106185780633b2c3fb61461063857600080fd5b80631291e33e1161035a578063248a9ca311610329578063248a9ca3146105415780632a55205a146105715780632db11544146105b05780632f2ff15d146105c357600080fd5b80631291e33e146104cd57806318160ddd146104e25780631c31f7101461050157806323b872dd1461052157600080fd5b806307e0db171161039657806307e0db1714610435578063081812fc14610455578063095ea7b31461048d57806310ddb137146104ad57600080fd5b80621d3567146103bc57806301ffc9a7146103de57806306fdde0314610413575b600080fd5b3480156103c857600080fd5b506103dc6103d7366004613e29565b610bd2565b005b3480156103ea57600080fd5b506103fe6103f9366004613b91565b610cdb565b60405190151581526020015b60405180910390f35b34801561041f57600080fd5b50610428610cec565b60405161040a919061419b565b34801561044157600080fd5b506103dc610450366004613cbf565b610d7e565b34801561046157600080fd5b50610475610470366004613b55565b610e29565b6040516001600160a01b03909116815260200161040a565b34801561049957600080fd5b506103dc6104a8366004613abb565b610ebe565b3480156104b957600080fd5b506103dc6104c8366004613cbf565b610fd4565b3480156104d957600080fd5b506103dc61104e565b3480156104ee57600080fd5b506008545b60405190815260200161040a565b34801561050d57600080fd5b506103dc61051c366004613960565b61106f565b34801561052d57600080fd5b506103dc61053c3660046139e1565b61109e565b34801561054d57600080fd5b506104f361055c366004613b55565b6000908152600a602052604090206001015490565b34801561057d57600080fd5b5061059161058c366004613f6c565b6110cf565b604080516001600160a01b03909316835260208301919091520161040a565b6103dc6105be366004613b55565b611105565b3480156105cf57600080fd5b506103dc6105de366004613b6d565b6112f9565b3480156105ef57600080fd5b506104f36105fe366004613abb565b61131f565b34801561060f57600080fd5b506104f3600581565b34801561062457600080fd5b506103dc610633366004613b6d565b6113b5565b34801561064457600080fd5b506103dc611433565b34801561065957600080fd5b506103dc61145f565b34801561066e57600080fd5b506103fe61067d366004613cf7565b6114eb565b34801561068e57600080fd5b506103dc61069d366004613b55565b6115b7565b3480156106ae57600080fd5b506103dc6106bd3660046139e1565b6115c9565b3480156106ce57600080fd5b506103dc6106dd366004613cf7565b6115e4565b3480156106ee57600080fd5b506104f36106fd366004613b55565b611695565b6103dc610710366004613f4f565b611736565b34801561072157600080fd5b506103dc610730366004613c7a565b6119e2565b34801561074157600080fd5b506103dc610750366004613c3b565b611a01565b34801561076157600080fd5b506104f3610770366004613960565b60176020526000908152604090205481565b34801561078e57600080fd5b506018546103fe9060ff1681565b3480156107a857600080fd5b506104756107b7366004613b55565b611a19565b3480156107c857600080fd5b506103dc6107d7366004613ae6565b611a90565b3480156107e857600080fd5b506103dc6107f7366004613e29565b611b67565b34801561080857600080fd5b50610428610817366004613cbf565b611bc2565b34801561082857600080fd5b506104f3610837366004613960565b611c69565b34801561084857600080fd5b506103dc611cf0565b34801561085d57600080fd5b506104f3600f5481565b34801561087357600080fd5b506018546103fe90610100900460ff1681565b34801561089257600080fd5b506103dc611d26565b3480156108a757600080fd5b50600b546001600160a01b0316610475565b3480156108c557600080fd5b506103dc6108d4366004613960565b611d50565b3480156108e557600080fd5b506104f36108f4366004613d49565b600d602090815260009384526040808520845180860184018051928152908401958401959095209452929052825290205481565b34801561093457600080fd5b506103dc610943366004613b55565b611d7f565b34801561095457600080fd5b506103fe610963366004613b6d565b611d91565b34801561097457600080fd5b506103dc610983366004613b55565b611dbc565b34801561099457600080fd5b50610428611dce565b6103dc6109ab366004613b55565b611ddd565b3480156109bc57600080fd5b506104f36109cb366004613f4f565b612021565b3480156109dc57600080fd5b506104f3600081565b3480156109f157600080fd5b506103dc610a00366004613a8a565b612159565b348015610a1157600080fd5b506103dc610a20366004613a21565b612164565b348015610a3157600080fd5b50610428610a40366004613b55565b612196565b348015610a5157600080fd5b506103dc610a60366004613ef0565b612291565b6103dc610a73366004613d9f565b612348565b348015610a8457600080fd5b506104f37f9f2df0fed2c77648de5860a4cc508cd0818c85b8b8a1ab4ceeef8d981c8956a681565b348015610ab857600080fd5b506103dc610ac7366004613b6d565b6124ce565b348015610ad857600080fd5b507f0000000000000000000000000000000000000000000000000000000000000000610475565b348015610b0b57600080fd5b506104286124f4565b348015610b2057600080fd5b506103fe610b2f3660046139a9565b6001600160a01b03918216600090815260056020908152604080832093909416825291909152205460ff1690565b348015610b6957600080fd5b506103dc610b78366004613cf7565b612503565b348015610b8957600080fd5b506104f3600a81565b348015610b9e57600080fd5b506103dc610bad366004613960565b61258c565b348015610bbe57600080fd5b50610428610bcd366004613ea0565b612627565b337f00000000000000000000000000000000000000000000000000000000000000006001600160a01b031614610c0757600080fd5b61ffff84166000908152600c602052604090208054610c2590614628565b90508351148015610c64575061ffff84166000908152600c6020526040908190209051610c5291906140a0565b60405180910390208380519060200120145b610cc95760405162461bcd60e51b815260206004820152602b60248201527f4c7a52656365697665723a20696e76616c696420736f757263652073656e646960448201526a1b99c818dbdb9d1c9858dd60aa1b60648201526084015b60405180910390fd5b610cd58484848461275f565b50505050565b6000610ce682612850565b92915050565b606060008054610cfb90614628565b80601f0160208091040260200160405190810160405280929190818152602001828054610d2790614628565b8015610d745780601f10610d4957610100808354040283529160200191610d74565b820191906000526020600020905b815481529060010190602001808311610d5757829003601f168201915b5050505050905090565b600b546001600160a01b03163314610da85760405162461bcd60e51b8152600401610cc090614200565b6040516307e0db1760e01b815261ffff821660048201527f00000000000000000000000000000000000000000000000000000000000000006001600160a01b0316906307e0db17906024015b600060405180830381600087803b158015610e0e57600080fd5b505af1158015610e22573d6000803e3d6000fd5b5050505050565b6000818152600260205260408120546001600160a01b0316610ea25760405162461bcd60e51b815260206004820152602c60248201527f4552433732313a20617070726f76656420717565727920666f72206e6f6e657860448201526b34b9ba32b73a103a37b5b2b760a11b6064820152608401610cc0565b506000908152600460205260409020546001600160a01b031690565b6000610ec982611a19565b9050806001600160a01b0316836001600160a01b03161415610f375760405162461bcd60e51b815260206004820152602160248201527f4552433732313a20617070726f76616c20746f2063757272656e74206f776e656044820152603960f91b6064820152608401610cc0565b336001600160a01b0382161480610f535750610f538133610b2f565b610fc55760405162461bcd60e51b815260206004820152603860248201527f4552433732313a20617070726f76652063616c6c6572206973206e6f74206f7760448201527f6e6572206e6f7220617070726f76656420666f7220616c6c00000000000000006064820152608401610cc0565b610fcf8383612875565b505050565b600b546001600160a01b03163314610ffe5760405162461bcd60e51b8152600401610cc090614200565b6040516310ddb13760e01b815261ffff821660048201527f00000000000000000000000000000000000000000000000000000000000000006001600160a01b0316906310ddb13790602401610df4565b600061105a81336128e3565b506018805460ff19811660ff90911615179055565b600061107b81336128e3565b50601080546001600160a01b0319166001600160a01b0392909216919091179055565b6110a83382612947565b6110c45760405162461bcd60e51b8152600401610cc0906142e2565b610fcf838383612a3a565b6011546012546001600160a01b0390911690600090612710906110f290856145af565b6110fc919061459b565b90509250929050565b601854610100900460ff1661114f5760405162461bcd60e51b815260206004820152601060248201526f14d85b19481b9bdd081cdd185c9d195960821b6044820152606401610cc0565b60185460ff1615156001146111a65760405162461bcd60e51b815260206004820181905260248201527f5075626c69632073616c6520686173206e6f74207374617274656420796574216044820152606401610cc0565b806111eb5760405162461bcd60e51b815260206004820152601560248201527443616e6e6f74206d696e74203020746f6b656e732160581b6044820152606401610cc0565b600581111561120c5760405162461bcd60e51b8152600401610cc090614285565b600a81600f5461121c9190614583565b11156112645760405162461bcd60e51b81526020600482015260176024820152762737ba1032b737bab3b4102a37b5b2b739903632b33a1760491b6044820152606401610cc0565b34600e548261127391906145af565b11156112bd5760405162461bcd60e51b8152602060048201526019602482015278496e636f6e73697374656e7420616d6f756e742073656e742160381b6044820152606401610cc0565b600f5460005b828110156112f2576112e0336112d884614663565b935083612be5565b806112ea81614663565b9150506112c3565b50600f5550565b6000828152600a602052604090206001015461131581336128e3565b610fcf8383612bff565b600061132a83611c69565b821061138c5760405162461bcd60e51b815260206004820152602b60248201527f455243373231456e756d657261626c653a206f776e657220696e646578206f7560448201526a74206f6620626f756e647360a81b6064820152608401610cc0565b506001600160a01b03919091166000908152600660209081526040808320938352929052205490565b6001600160a01b03811633146114255760405162461bcd60e51b815260206004820152602f60248201527f416363657373436f6e74726f6c3a2063616e206f6e6c792072656e6f756e636560448201526e103937b632b9903337b91039b2b63360891b6064820152608401610cc0565b61142f8282612c85565b5050565b600061143f81336128e3565b506018805462ff0000198116620100009182900460ff1615909102179055565b600061146b81336128e3565b6010546001600160a01b03166114b95760405162461bcd60e51b815260206004820152601360248201527210995b99599a58da585c9e481b9bdd081cd95d606a1b6044820152606401610cc0565b60105460405147916001600160a01b03169082156108fc029083906000818181858888f1935050505061142f57600080fd5b61ffff83166000908152600c60205260408120805482919061150c90614628565b80601f016020809104026020016040519081016040528092919081815260200182805461153890614628565b80156115855780601f1061155a57610100808354040283529160200191611585565b820191906000526020600020905b81548152906001019060200180831161156857829003601f168201915b50505050509050838360405161159c929190614074565b60405180910390208180519060200120149150509392505050565b60006115c381336128e3565b50601255565b610fcf83838360405180602001604052806000815250612164565b600b546001600160a01b0316331461160e5760405162461bcd60e51b8152600401610cc090614200565b6040516342d65a8d60e01b81526001600160a01b037f000000000000000000000000000000000000000000000000000000000000000016906342d65a8d9061165e90869086908690600401614387565b600060405180830381600087803b15801561167857600080fd5b505af115801561168c573d6000803e3d6000fd5b50505050505050565b60006116a060085490565b82106117035760405162461bcd60e51b815260206004820152602c60248201527f455243373231456e756d657261626c653a20676c6f62616c20696e646578206f60448201526b7574206f6620626f756e647360a01b6064820152608401610cc0565b6008828154811061172457634e487b7160e01b600052603260045260246000fd5b90600052602060002001549050919050565b6117403382612947565b6117b25760405162461bcd60e51b815260206004820152603f60248201527f596f75206e65656420746f20617070726f7665206f72206265206f776e65722060448201527f6f662074686520746f6b656e20746f2073656e6420796f7572204e46547321006064820152608401610cc0565b61ffff82166000908152600c6020526040812080546117d090614628565b9050116117ef5760405162461bcd60e51b8152600401610cc090614235565b60408051336020820152808201839052815180820383018152606082018352601354600160f01b60808401526082808401919091528351808403909101815260a283019384905263040a7bb160e41b90935291906000907f00000000000000000000000000000000000000000000000000000000000000006001600160a01b0316906340a7bb109061188d908890309088908790899060a601614333565b604080518083038186803b1580156118a457600080fd5b505afa1580156118b8573d6000803e3d6000fd5b505050506040513d601f19601f820116820180604052508101906118dc9190613f8d565b509050803410156119395760405162461bcd60e51b815260206004820152602160248201527f4e6f7420656e6f75676820666f7220612063726f73732d636861696e206665656044820152602160f81b6064820152608401610cc0565b61194284612cec565b61ffff85166000908152600c6020526040808220905162c5803160e81b81526001600160a01b037f0000000000000000000000000000000000000000000000000000000000000000169263c58031009234926119a9928b92918a9133918b90600401614422565b6000604051808303818588803b1580156119c257600080fd5b505af11580156119d6573d6000803e3d6000fd5b50505050505050505050565b60006119ee81336128e3565b8151610fcf906016906020850190613794565b6000611a0d81336128e3565b610cd560148484613818565b6000818152600260205260408120546001600160a01b031680610ce65760405162461bcd60e51b815260206004820152602960248201527f4552433732313a206f776e657220717565727920666f72206e6f6e657869737460448201526832b73a103a37b5b2b760b91b6064820152608401610cc0565b6000611a9c81336128e3565b60005b82811015610cd557611b007f9f2df0fed2c77648de5860a4cc508cd0818c85b8b8a1ab4ceeef8d981c8956a6858584818110611aeb57634e487b7160e01b600052603260045260246000fd5b90506020020160208101906105de9190613960565b600560176000868685818110611b2657634e487b7160e01b600052603260045260246000fd5b9050602002016020810190611b3b9190613960565b6001600160a01b0316815260208101919091526040016000205580611b5f81614663565b915050611a9f565b333014611bb65760405162461bcd60e51b815260206004820181905260248201527f4c7a52656365697665723a2063616c6c6572206d757374206265204c7a4170706044820152606401610cc0565b610cd584848484612cf5565b61ffff81166000908152600c60205260409020805460609190611be490614628565b80601f0160208091040260200160405190810160405280929190818152602001828054611c1090614628565b8015611c5d5780601f10611c3257610100808354040283529160200191611c5d565b820191906000526020600020905b815481529060010190602001808311611c4057829003601f168201915b50505050509050919050565b60006001600160a01b038216611cd45760405162461bcd60e51b815260206004820152602a60248201527f4552433732313a2062616c616e636520717565727920666f7220746865207a65604482015269726f206164647265737360b01b6064820152608401610cc0565b506001600160a01b031660009081526003602052604090205490565b600b546001600160a01b03163314611d1a5760405162461bcd60e51b8152600401610cc090614200565b611d246000612d22565b565b6000611d3281336128e3565b506018805461ff001981166101009182900460ff1615909102179055565b6000611d5c81336128e3565b50601180546001600160a01b0319166001600160a01b0392909216919091179055565b6000611d8b81336128e3565b50600e55565b6000918252600a602090815260408084206001600160a01b0393909316845291905290205460ff1690565b6000611dc881336128e3565b50601355565b606060018054610cfb90614628565b601854610100900460ff16611e275760405162461bcd60e51b815260206004820152601060248201526f14d85b19481b9bdd081cdd185c9d195960821b6044820152606401610cc0565b7f9f2df0fed2c77648de5860a4cc508cd0818c85b8b8a1ab4ceeef8d981c8956a6611e5281336128e3565b81611e975760405162461bcd60e51b815260206004820152601560248201527443616e6e6f74206d696e74203020746f6b656e732160581b6044820152606401610cc0565b6005821115611eb85760405162461bcd60e51b8152600401610cc090614285565b600a82600f54611ec89190614583565b1115611f105760405162461bcd60e51b81526020600482015260176024820152762737ba1032b737bab3b4102a37b5b2b739903632b33a1760491b6044820152606401610cc0565b34600e5483611f1f91906145af565b1115611f695760405162461bcd60e51b8152602060048201526019602482015278496e636f6e73697374656e7420616d6f756e742073656e742160381b6044820152606401610cc0565b33600090815260176020526040902054821115611fc85760405162461bcd60e51b815260206004820152601d60248201527f596f752065786365656465642074686520746f6b656e206c696d69742e0000006044820152606401610cc0565b3360009081526017602052604081208054849290611fe79084906145ce565b9091555050600f5460005b8381101561201957612007336112d884614663565b8061201181614663565b915050611ff2565b50600f555050565b61ffff82166000908152600c60205260408120805482919061204290614628565b9050116120615760405162461bcd60e51b8152600401610cc090614235565b60408051336020820152808201849052815180820383018152606082018352601354600160f01b60808401526082808401919091528351808403909101815260a283019384905263040a7bb160e41b90935291906000907f00000000000000000000000000000000000000000000000000000000000000006001600160a01b0316906340a7bb10906120ff908990309088908790899060a601614333565b604080518083038186803b15801561211657600080fd5b505afa15801561212a573d6000803e3d6000fd5b505050506040513d601f19601f8201168201806040525081019061214e9190613f8d565b509695505050505050565b61142f338383612d74565b61216e3383612947565b61218a5760405162461bcd60e51b8152600401610cc0906142e2565b610cd584848484612e43565b6000818152600260205260409020546060906001600160a01b03166122155760405162461bcd60e51b815260206004820152602f60248201527f4552433732314d657461646174613a2055524920717565727920666f72206e6f60448201526e3732bc34b9ba32b73a103a37b5b2b760891b6064820152608401610cc0565b60185462010000900460ff166122325760168054611be490614628565b600061223c6124f4565b9050600081511161225c576040518060200160405280600081525061228a565b8061226684612e76565b601560405160200161227a939291906140ac565b6040516020818303038152906040525b9392505050565b600b546001600160a01b031633146122bb5760405162461bcd60e51b8152600401610cc090614200565b6040516332fb62e760e21b81526001600160a01b037f0000000000000000000000000000000000000000000000000000000000000000169063cbed8b9c9061230f90889088908890889088906004016144fe565b600060405180830381600087803b15801561232957600080fd5b505af115801561233d573d6000803e3d6000fd5b505050505050505050565b61ffff85166000908152600d60205260408082209051612369908790614084565b90815260408051602092819003830190206001600160401b038716600090815292529020549050806123dd5760405162461bcd60e51b815260206004820152601d60248201527f4c7a52656365697665723a206e6f2073746f726564206d6573736167650000006044820152606401610cc0565b8083836040516123ee929190614074565b6040518091039020146124435760405162461bcd60e51b815260206004820152601b60248201527f4c7a52656365697665723a20696e76616c6964207061796c6f616400000000006044820152606401610cc0565b61ffff86166000908152600d60205260408082209051612464908890614084565b9081526040805191829003602090810183206001600160401b038916600090815291522091909155633356ae4560e11b815230906366ad5c8a906124b490899089908990899089906004016143a5565b600060405180830381600087803b1580156119c257600080fd5b6000828152600a60205260409020600101546124ea81336128e3565b610fcf8383612c85565b606060148054610cfb90614628565b600b546001600160a01b0316331461252d5760405162461bcd60e51b8152600401610cc090614200565b61ffff83166000908152600c6020526040902061254b908383613818565b507ffa41487ad5d6728f0b19276fa1eddc16558578f5109fc39d2dc33c3230470dab83838360405161257f93929190614387565b60405180910390a1505050565b600b546001600160a01b031633146125b65760405162461bcd60e51b8152600401610cc090614200565b6001600160a01b03811661261b5760405162461bcd60e51b815260206004820152602660248201527f4f776e61626c653a206e6577206f776e657220697320746865207a65726f206160448201526564647265737360d01b6064820152608401610cc0565b61262481612d22565b50565b6040516304b2b47b60e11b81523060048201526060907f00000000000000000000000000000000000000000000000000000000000000006001600160a01b03169063f5ecbdbc90829063096568f69060240160206040518083038186803b15801561269157600080fd5b505afa1580156126a5573d6000803e3d6000fd5b505050506040513d601f19601f820116820180604052508101906126c99190613cdb565b6040516001600160e01b031960e084901b16815261ffff918216600482015290871660248201523060448201526064810185905260840160006040518083038186803b15801561271857600080fd5b505afa15801561272c573d6000803e3d6000fd5b505050506040513d6000823e601f3d908101601f191682016040526127549190810190613bc9565b90505b949350505050565b604051633356ae4560e11b815230906366ad5c8a906127889087908790879087906004016143e4565b600060405180830381600087803b1580156127a257600080fd5b505af19250505080156127b3575060015b610cd5578080519060200120600d60008661ffff1661ffff168152602001908152602001600020846040516127e89190614084565b9081526040805191829003602090810183206001600160401b0387166000908152915220919091557fe6f254030bcb01ffd20558175c13fcaed6d1520be7becee4c961b65f79243b0d906128439086908690869086906143e4565b60405180910390a1610cd5565b60006001600160e01b03198216637965db0b60e01b1480610ce65750610ce682612f8f565b600081815260046020526040902080546001600160a01b0319166001600160a01b03841690811790915581906128aa82611a19565b6001600160a01b03167f8c5be1e5ebec7d5bd14f71427d1e84f3dd0314c0f7b2291e5b200ac8c7c3b92560405160405180910390a45050565b6128ed8282611d91565b61142f57612905816001600160a01b03166014612fb4565b612910836020612fb4565b6040516020016129219291906140e9565b60408051601f198184030181529082905262461bcd60e51b8252610cc09160040161419b565b6000818152600260205260408120546001600160a01b03166129c05760405162461bcd60e51b815260206004820152602c60248201527f4552433732313a206f70657261746f7220717565727920666f72206e6f6e657860448201526b34b9ba32b73a103a37b5b2b760a11b6064820152608401610cc0565b60006129cb83611a19565b9050806001600160a01b0316846001600160a01b03161480612a065750836001600160a01b03166129fb84610e29565b6001600160a01b0316145b8061275757506001600160a01b0380821660009081526005602090815260408083209388168352929052205460ff16612757565b826001600160a01b0316612a4d82611a19565b6001600160a01b031614612ab55760405162461bcd60e51b815260206004820152602960248201527f4552433732313a207472616e73666572206f6620746f6b656e2074686174206960448201526839903737ba1037bbb760b91b6064820152608401610cc0565b6001600160a01b038216612b175760405162461bcd60e51b8152602060048201526024808201527f4552433732313a207472616e7366657220746f20746865207a65726f206164646044820152637265737360e01b6064820152608401610cc0565b612b22838383613195565b612b2d600082612875565b6001600160a01b0383166000908152600360205260408120805460019290612b569084906145ce565b90915550506001600160a01b0382166000908152600360205260408120805460019290612b84908490614583565b909155505060008181526002602052604080822080546001600160a01b0319166001600160a01b0386811691821790925591518493918716917fddf252ad1be2c89b69c2b068fc378daa952ba7f163c4a11628f55a4df523b3ef91a4505050565b61142f8282604051806020016040528060008152506131a0565b612c098282611d91565b61142f576000828152600a602090815260408083206001600160a01b03851684529091529020805460ff19166001179055612c413390565b6001600160a01b0316816001600160a01b0316837f2f8788117e7eff1d82e926ec794901d17c78024a50270940304540a733656f0d60405160405180910390a45050565b612c8f8282611d91565b1561142f576000828152600a602090815260408083206001600160a01b0385168085529252808320805460ff1916905551339285917ff6391f5c32d9c69d2a47ea670b442974b53935d1edc7fd64eb21e047a839171b9190a45050565b612624816131d3565b60008082806020019051810190612d0c919061397c565b91509150612d1a8282612be5565b505050505050565b600b80546001600160a01b038381166001600160a01b0319831681179093556040519116919082907f8be0079c531659141344cd1fd0a4f28419497f9722a3daafe3b4186f6b6457e090600090a35050565b816001600160a01b0316836001600160a01b03161415612dd65760405162461bcd60e51b815260206004820152601960248201527f4552433732313a20617070726f766520746f2063616c6c6572000000000000006044820152606401610cc0565b6001600160a01b03838116600081815260056020908152604080832094871680845294825291829020805460ff191686151590811790915591519182527f17307eab39ab6107e8899845ad3d59bd9653f200f220920489ca2b5937696c31910160405180910390a3505050565b612e4e848484612a3a565b612e5a8484848461327a565b610cd55760405162461bcd60e51b8152600401610cc0906141ae565b606081612e9a5750506040805180820190915260018152600360fc1b602082015290565b8160005b8115612ec45780612eae81614663565b9150612ebd9050600a8361459b565b9150612e9e565b6000816001600160401b03811115612eec57634e487b7160e01b600052604160045260246000fd5b6040519080825280601f01601f191660200182016040528015612f16576020820181803683370190505b5090505b841561275757612f2b6001836145ce565b9150612f38600a8661467e565b612f43906030614583565b60f81b818381518110612f6657634e487b7160e01b600052603260045260246000fd5b60200101906001600160f81b031916908160001a905350612f88600a8661459b565b9450612f1a565b60006001600160e01b0319821663780e9d6360e01b1480610ce65750610ce682613384565b60606000612fc38360026145af565b612fce906002614583565b6001600160401b03811115612ff357634e487b7160e01b600052604160045260246000fd5b6040519080825280601f01601f19166020018201604052801561301d576020820181803683370190505b509050600360fc1b8160008151811061304657634e487b7160e01b600052603260045260246000fd5b60200101906001600160f81b031916908160001a905350600f60fb1b8160018151811061308357634e487b7160e01b600052603260045260246000fd5b60200101906001600160f81b031916908160001a90535060006130a78460026145af565b6130b2906001614583565b90505b6001811115613146576f181899199a1a9b1b9c1cb0b131b232b360811b85600f16601081106130f457634e487b7160e01b600052603260045260246000fd5b1a60f81b82828151811061311857634e487b7160e01b600052603260045260246000fd5b60200101906001600160f81b031916908160001a90535060049490941c9361313f81614611565b90506130b5565b50831561228a5760405162461bcd60e51b815260206004820181905260248201527f537472696e67733a20686578206c656e67746820696e73756666696369656e746044820152606401610cc0565b610fcf8383836133d4565b6131aa838361348c565b6131b7600084848461327a565b610fcf5760405162461bcd60e51b8152600401610cc0906141ae565b60006131de82611a19565b90506131ec81600084613195565b6131f7600083612875565b6001600160a01b03811660009081526003602052604081208054600192906132209084906145ce565b909155505060008281526002602052604080822080546001600160a01b0319169055518391906001600160a01b038416907fddf252ad1be2c89b69c2b068fc378daa952ba7f163c4a11628f55a4df523b3ef908390a45050565b60006001600160a01b0384163b1561337c57604051630a85bd0160e11b81526001600160a01b0385169063150b7a02906132be90339089908890889060040161415e565b602060405180830381600087803b1580156132d857600080fd5b505af1925050508015613308575060408051601f3d908101601f1916820190925261330591810190613bad565b60015b613362573d808015613336576040519150601f19603f3d011682016040523d82523d6000602084013e61333b565b606091505b50805161335a5760405162461bcd60e51b8152600401610cc0906141ae565b805181602001fd5b6001600160e01b031916630a85bd0160e11b149050612757565b506001612757565b60006001600160e01b031982166380ac58cd60e01b14806133b557506001600160e01b03198216635b5e139f60e01b145b80610ce657506301ffc9a760e01b6001600160e01b0319831614610ce6565b6001600160a01b03831661342f5761342a81600880546000838152600960205260408120829055600182018355919091527ff3f7a9fe364faab93b216da50a3214154f22a0a2b415b23a84c8169e8b636ee30155565b613452565b816001600160a01b0316836001600160a01b0316146134525761345283826135da565b6001600160a01b03821661346957610fcf81613677565b826001600160a01b0316826001600160a01b031614610fcf57610fcf8282613750565b6001600160a01b0382166134e25760405162461bcd60e51b815260206004820181905260248201527f4552433732313a206d696e7420746f20746865207a65726f20616464726573736044820152606401610cc0565b6000818152600260205260409020546001600160a01b0316156135475760405162461bcd60e51b815260206004820152601c60248201527f4552433732313a20746f6b656e20616c7265616479206d696e746564000000006044820152606401610cc0565b61355360008383613195565b6001600160a01b038216600090815260036020526040812080546001929061357c908490614583565b909155505060008181526002602052604080822080546001600160a01b0319166001600160a01b03861690811790915590518392907fddf252ad1be2c89b69c2b068fc378daa952ba7f163c4a11628f55a4df523b3ef908290a45050565b600060016135e784611c69565b6135f191906145ce565b600083815260076020526040902054909150808214613644576001600160a01b03841660009081526006602090815260408083208584528252808320548484528184208190558352600790915290208190555b5060009182526007602090815260408084208490556001600160a01b039094168352600681528383209183525290812055565b600854600090613689906001906145ce565b600083815260096020526040812054600880549394509092849081106136bf57634e487b7160e01b600052603260045260246000fd5b9060005260206000200154905080600883815481106136ee57634e487b7160e01b600052603260045260246000fd5b600091825260208083209091019290925582815260099091526040808220849055858252812055600880548061373457634e487b7160e01b600052603160045260246000fd5b6001900381819060005260206000200160009055905550505050565b600061375b83611c69565b6001600160a01b039093166000908152600660209081526040808320868452825280832085905593825260079052919091209190915550565b8280546137a090614628565b90600052602060002090601f0160209004810192826137c25760008555613808565b82601f106137db57805160ff1916838001178555613808565b82800160010185558215613808579182015b828111156138085782518255916020019190600101906137ed565b5061381492915061388c565b5090565b82805461382490614628565b90600052602060002090601f0160209004810192826138465760008555613808565b82601f1061385f5782800160ff19823516178555613808565b82800160010185558215613808579182015b82811115613808578235825591602001919060010190613871565b5b80821115613814576000815560010161388d565b60006138b46138af8461455c565b61452c565b90508281528383830111156138c857600080fd5b828260208301376000602084830101529392505050565b60008083601f8401126138f0578182fd5b5081356001600160401b03811115613906578182fd5b60208301915083602082850101111561391e57600080fd5b9250929050565b600082601f830112613935578081fd5b61228a838335602085016138a1565b80356001600160401b038116811461395b57600080fd5b919050565b600060208284031215613971578081fd5b813561228a816146d4565b6000806040838503121561398e578081fd5b8251613999816146d4565b6020939093015192949293505050565b600080604083850312156139bb578182fd5b82356139c6816146d4565b915060208301356139d6816146d4565b809150509250929050565b6000806000606084860312156139f5578081fd5b8335613a00816146d4565b92506020840135613a10816146d4565b929592945050506040919091013590565b60008060008060808587031215613a36578081fd5b8435613a41816146d4565b93506020850135613a51816146d4565b92506040850135915060608501356001600160401b03811115613a72578182fd5b613a7e87828801613925565b91505092959194509250565b60008060408385031215613a9c578182fd5b8235613aa7816146d4565b9150602083013580151581146139d6578182fd5b60008060408385031215613acd578182fd5b8235613ad8816146d4565b946020939093013593505050565b60008060208385031215613af8578182fd5b82356001600160401b0380821115613b0e578384fd5b818501915085601f830112613b21578384fd5b813581811115613b2f578485fd5b8660208260051b8501011115613b43578485fd5b60209290920196919550909350505050565b600060208284031215613b66578081fd5b5035919050565b60008060408385031215613b7f578182fd5b8235915060208301356139d6816146d4565b600060208284031215613ba2578081fd5b813561228a816146e9565b600060208284031215613bbe578081fd5b815161228a816146e9565b600060208284031215613bda578081fd5b81516001600160401b03811115613bef578182fd5b8201601f81018413613bff578182fd5b8051613c0d6138af8261455c565b818152856020838501011115613c21578384fd5b613c328260208301602086016145e5565b95945050505050565b60008060208385031215613c4d578182fd5b82356001600160401b03811115613c62578283fd5b613c6e858286016138df565b90969095509350505050565b600060208284031215613c8b578081fd5b81356001600160401b03811115613ca0578182fd5b8201601f81018413613cb0578182fd5b612757848235602084016138a1565b600060208284031215613cd0578081fd5b813561228a816146ff565b600060208284031215613cec578081fd5b815161228a816146ff565b600080600060408486031215613d0b578081fd5b8335613d16816146ff565b925060208401356001600160401b03811115613d30578182fd5b613d3c868287016138df565b9497909650939450505050565b600080600060608486031215613d5d578081fd5b8335613d68816146ff565b925060208401356001600160401b03811115613d82578182fd5b613d8e86828701613925565b925050604084013590509250925092565b600080600080600060808688031215613db6578283fd5b8535613dc1816146ff565b945060208601356001600160401b0380821115613ddc578485fd5b613de889838a01613925565b9550613df660408901613944565b94506060880135915080821115613e0b578283fd5b50613e18888289016138df565b969995985093965092949392505050565b60008060008060808587031215613e3e578182fd5b8435613e49816146ff565b935060208501356001600160401b0380821115613e64578384fd5b613e7088838901613925565b9450613e7e60408801613944565b93506060870135915080821115613e93578283fd5b50613a7e87828801613925565b60008060008060808587031215613eb5578182fd5b8435613ec0816146ff565b93506020850135613ed0816146ff565b92506040850135613ee0816146d4565b9396929550929360600135925050565b600080600080600060808688031215613f07578283fd5b8535613f12816146ff565b94506020860135613f22816146ff565b93506040860135925060608601356001600160401b03811115613f43578182fd5b613e18888289016138df565b60008060408385031215613f61578182fd5b8235613ad8816146ff565b60008060408385031215613f7e578182fd5b50508035926020909101359150565b60008060408385031215613f9f578182fd5b505080516020909101519092909150565b81835281816020850137506000828201602090810191909152601f909101601f19169091010190565b60008151808452613ff18160208601602086016145e5565b601f01601f19169290920160200192915050565b6000815461401281614628565b6001828116801561402a576001811461403b5761406a565b60ff1984168752828701945061406a565b8560005260208060002060005b858110156140615781548a820152908401908201614048565b50505082870194505b5050505092915050565b8183823760009101908152919050565b600082516140968184602087016145e5565b9190910192915050565b600061228a8284614005565b600084516140be8184602089016145e5565b8451908301906140d28183602089016145e5565b6140de81830186614005565b979650505050505050565b7f416363657373436f6e74726f6c3a206163636f756e74200000000000000000008152600083516141218160178501602088016145e5565b7001034b99036b4b9b9b4b733903937b6329607d1b60179184019182015283516141528160288401602088016145e5565b01602801949350505050565b6001600160a01b038581168252841660208201526040810183905260806060820181905260009061419190830184613fd9565b9695505050505050565b60208152600061228a6020830184613fd9565b60208082526032908201527f4552433732313a207472616e7366657220746f206e6f6e20455243373231526560408201527131b2b4bb32b91034b6b83632b6b2b73a32b960711b606082015260800190565b6020808252818101527f4f776e61626c653a2063616c6c6572206973206e6f7420746865206f776e6572604082015260600190565b60208082526030908201527f5468697320636861696e2069732063757272656e746c7920756e617661696c6160408201526f313632903337b9103a3930b739b332b960811b606082015260800190565b6020808252603d908201527f596f752063616e6e6f74206d696e74206d6f7265207468616e204d41585f544f60408201527f4b454e535f5045525f4d494e5420746f6b656e73206174206f6e636521000000606082015260800190565b60208082526031908201527f4552433732313a207472616e736665722063616c6c6572206973206e6f74206f6040820152701ddb995c881b9bdc88185c1c1c9bdd9959607a1b606082015260800190565b61ffff861681526001600160a01b038516602082015260a06040820181905260009061436190830186613fd9565b8415156060840152828103608084015261437b8185613fd9565b98975050505050505050565b61ffff84168152604060208201526000612754604083018486613fb0565b61ffff861681526080602082015260006143c26080830187613fd9565b6001600160401b0386166040840152828103606084015261437b818587613fb0565b61ffff851681526080602082015260006144016080830186613fd9565b6001600160401b038516604084015282810360608401526140de8185613fd9565b61ffff871681526000602060c08184015281885461443f81614628565b8060c087015260e06001808416600081146144615760018114614476576144a1565b60ff19851689840152610100890195506144a1565b8d8852868820885b858110156144995781548b820186015290830190880161447e565b8a0184019650505b505050505083810360408501526144b88189613fd9565b9150506144d060608401876001600160a01b03169052565b6001600160a01b038516608084015282810360a08401526144f18185613fd9565b9998505050505050505050565b600061ffff8088168352808716602084015250846040830152608060608301526140de608083018486613fb0565b604051601f8201601f191681016001600160401b0381118282101715614554576145546146be565b604052919050565b60006001600160401b03821115614575576145756146be565b50601f01601f191660200190565b6000821982111561459657614596614692565b500190565b6000826145aa576145aa6146a8565b500490565b60008160001904831182151516156145c9576145c9614692565b500290565b6000828210156145e0576145e0614692565b500390565b60005b838110156146005781810151838201526020016145e8565b83811115610cd55750506000910152565b60008161462057614620614692565b506000190190565b600181811c9082168061463c57607f821691505b6020821081141561465d57634e487b7160e01b600052602260045260246000fd5b50919050565b600060001982141561467757614677614692565b5060010190565b60008261468d5761468d6146a8565b500690565b634e487b7160e01b600052601160045260246000fd5b634e487b7160e01b600052601260045260246000fd5b634e487b7160e01b600052604160045260246000fd5b6001600160a01b038116811461262457600080fd5b6001600160e01b03198116811461262457600080fd5b61ffff8116811461262457600080fdfea2646970667358221220be00c52cdcf23cbb56d54fcbab95aa851c97765eca48dfc135bf9a095698b74f64736f6c6343000804003368747470733a2f2f676174657761792e70696e6174612e636c6f75642f697066732f516d644b61324244617232477773383636454e5567586f6a6d4b58425364794e6d344b4b66574873524534687276",
  "linkReferences": {},
  "deployedLinkReferences": {}
}